:100000000C942A000C943F000C943F000C943F0089
:100010000C943F000C943F000C943F000C943F0064
:100020000C943F000C943F000C943F000C943F0054
:100030000C943F000C943F000C943F000C943F0044
:100040000C943F000C943F000C943F000C943F0034
:100050000C943F0011241FBECFE5D8E0DEBFCDBF1A
:1000600010E0A0E6B0E0ECEFFEE102C005900D92DA
:10007000A03CB107D9F70E94F10E0C947C0F0C94B0
:100080000000EF92FF920F931F937B018C0120E001
:1000900030E040E05FE40E94410388238CF0C80117
:1000A000B70120E030E040E05FE40E94B9010E9427
:1000B000A1039B01AC01205030404040504806C095
:1000C000C801B7010E94A1039B01AC01B901CA019B
:1000D0001F910F91FF90EF900895A0E0B0E0E3E74B
:1000E000F0E00C94450FDC012B01FA019C91923059
:1000F00008F439C1EB018881823008F433C19430AF
:1001000069F4843009F02FC111969C91119789816F
:10011000981709F428C1A0E9B0E025C1843009F49A
:1001200021C18230A9F4923009F01DC19A01AD01BC
:1001300088E0EA010990AE01E90109929E0181502F
:10014000C1F7E201898111969C918923818308C1BD
:10015000923009F407C112962D903C901397EB0151
:100160008A819B811496AD90BD90CD90DC901797BD
:10017000EC80FD800E811F819101281B390BB90194
:1001800037FF04C066277727621B730B6032710547
:100190000CF061C0121613066CF537014801062EEB
:1001A00004C096948794779467940A94D2F721E0D8
:1001B00030E040E050E004C0220F331F441F551FC1
:1001C0006A95D2F721503040404050402E213F21C7
:1001D00040235123211531054105510521F021E02E
:1001E00030E040E050E079018A01E628F72808294C
:1001F00019293CC0232BD1F1260E371E35014601AB
:10020000062E04C096948794779467940A94D2F744
:1002100021E030E040E050E004C0220F331F441FD3
:10022000551F6A95D2F721503040404050402A2156
:100230003B214C215D21211531054105510521F05E
:1002400021E030E040E050E059016A01A628B728DB
:10025000C828D9280BC0821593052CF01C01AA24AC
:10026000BB24650103C0EE24FF24870111969C91F5
:10027000D20111968C91981709F445C0992339F051
:10028000A80197012A193B094C095D0906C0A6017E
:1002900095012E193F09400B510B57FD08C01182E3
:1002A0003382228224833583468357831DC081E0B5
:1002B00081833382228288279927DC01821B930B5A
:1002C000A40BB50B84839583A683B7830DC0220F3F
:1002D000331F441F551F24833583468357838281F0
:1002E000938101979383828324813581468157814D
:1002F000DA01C9010197A109B1098F5F9F4FAF4F83
:10030000BF4328F30BC0918333822282EA0CFB1C8B
:100310000C1D1D1DE482F5820683178383E0808314
:10032000248135814681578157FF1AC0C901AA2708
:1003300097FDA095BA2F81709070A070B0705695FF
:10034000479537952795822B932BA42BB52B848328
:100350009583A683B7838281938101969383828359
:10036000DF0101C0D201CD01CDB7DEB7E2E10C94CF
:10037000610FA0E2B0E0EFEBF1E00C94510F698364
:100380007A838B839C832D833E834F835887E9E058
:10039000EE2EF12CEC0EFD1ECE010196B7010E944F
:1003A000CA048E010F5E1F4FCE010596B8010E9450
:1003B000CA048A8991E089278A8BC701B801AE01F6
:1003C000475E5F4F0E946D000E94F503A096E6E035
:1003D0000C946D0FA0E2B0E0E0EFF1E00C94510F4F
:1003E00069837A838B839C832D833E834F835887D5
:1003F000F9E0EF2EF12CEC0EFD1ECE010196B701B7
:100400000E94CA048E010F5E1F4FCE010596B801EF
:100410000E94CA04C701B801AE01475E5F4F0E9447
:100420006D000E94F503A096E6E00C946D0FA0E22B
:10043000B0E0EDE1F2E00C94450F69837A838B83A1
:100440009C832D833E834F835887CE010196BE0146
:10045000675F7F4F0E94CA04CE010596BE016F5EA2
:100460007F4F0E94CA049985923088F08989823032
:10047000C8F0943019F4823051F404C0843029F467
:10048000923081F480E990E0C6C0923049F420E0D7
:100490009A858A89981321E02A87CE010996BBC0E4
:1004A000823049F420E09A858A89981321E02A8BCA
:1004B000CE014196B0C02D843E844F8458886D880B
:1004C0007E888F88988CEE24FF248701AA24BB2481
:1004D000650140E050E060E070E0E0E0F0E0C10184
:1004E00081709070892BE9F0E60CF71C081D191D2E
:1004F0009A01AB012A0D3B1D4C1D5D1D80E090E073
:10050000A0E0B0E0E614F7040805190520F481E046
:1005100090E0A0E0B0E0BA01A901480F591F6A1F9E
:100520007B1FAA0CBB1CCC1CDD1C97FE08C081E005
:1005300090E0A0E0B0E0A82AB92ACA2ADB2A3196C6
:10054000E032F10549F0660C771C881C991C569422
:10055000479437942794C3CFFA85EA892B893C893D
:100560008B859C85280F391F2E5F3F4F17C0CA010E
:1005700081709070892B61F016950795F794E79438
:1005800080E090E0A0E0B0E8E82AF92A0A2B1B2BD3
:1005900076956795579547952F5F3F4F77FDE7CF46
:1005A0000CC0440F551F661F771F17FD4160EE0CEE
:1005B000FF1C001F111F21503040403090E05907B0
:1005C00090E0690790E4790760F32B8F3C8FDB01A3
:1005D000CA018F779070A070B07080349105A1052A
:1005E000B10561F447FD0AC0E114F10401051105EC
:1005F00029F0405C5F4F6F4F7F4F40781A8EFE1797
:1006000011F081E08A8F4D8F5E8F6F8F78A383E02A
:10061000898FCE0149960E94F503A096E2E10C94E1
:10062000610FA8E1B0E0E7E1F3E00C94510F6983BA
:100630007A838B839C832D833E834F83588789E005
:10064000E82EF12CEC0EFD1ECE010196B7010E94A2
:10065000CA048E010F5E1F4FCE010596B8010E949D
:10066000CA048985823040F08989823028F0C70128
:10067000B8010E94420501C08FEF6896E6E00C9435
:100680006D0FA8E1B0E0E7E4F3E00C94510F69834B
:100690007A838B839C832D833E834F83588789E0A5
:1006A000E82EF12CEC0EFD1ECE010196B7010E9442
:1006B000CA048E010F5E1F4FCE010596B8010E943D
:1006C000CA048985823040F08989823028F0C701C8
:1006D000B8010E94420501C08FEF6896E6E00C94D5
:1006E0006D0FA8E1B0E0E7E7F3E00C94510F6983E8
:1006F0007A838B839C832D833E834F83588789E045
:10070000E82EF12CEC0EFD1ECE010196B7010E94E1
:10071000CA048E010F5E1F4FCE010596B8010E94DC
:10072000CA048985823040F08989823028F0C70167
:10073000B8010E94420501C081E06896E6E00C9491
:100740006D0FACE0B0E0E7EAF3E00C94550F69837D
:100750007A838B839C83CE010196BE016B5F7F4FB2
:100760000E94CA048D81823061F1823050F1843060
:1007700021F48E81882351F12EC02F81388537FDD9
:1007800020C06E812F3131051CF06623F9F023C0A3
:100790008EE190E0821B930B29853A854B855C8521
:1007A00004C056954795379527958A95D2F76623C5
:1007B000B1F050954095309521953F4F4F4F5F4F89
:1007C0000EC020E030E040E050E009C02FEF3FEFE6
:1007D0004FEF5FE704C020E030E040E050E8B901AF
:1007E000CA012C96E2E00C94710FDF92EF92FF9217
:1007F0000F931F93FC01E480F58006811781D1805F
:100800008081823048F480E090E0A0E1B0E0E82A06
:10081000F92A0A2B1B2BA5C0843009F49FC0823013
:1008200021F4EE24FF24870105C0E114F104010541
:10083000110519F4E0E0F0E096C0628173819FEF4A
:10084000623879070CF05BC022E83FEF261B370BBC
:100850002A3131052CF020E030E040E050E02AC0A1
:10086000B801A701022E04C0769567955795479564
:100870000A94D2F781E090E0A0E0B0E004C0880FD5
:10088000991FAA1FBB1F2A95D2F70197A109B10989
:100890008E219F21A023B1230097A105B10521F04E
:1008A00081E090E0A0E0B0E09A01AB01282B392B69
:1008B0004A2B5B2BDA01C9018F779070A070B07062
:1008C00080349105A105B10539F427FF09C0205CEA
:1008D0003F4F4F4F5F4F04C0215C3F4F4F4F5F4F23
:1008E000E0E0F0E02030A0E03A07A0E04A07A0E412
:1008F0005A0710F0E1E0F0E079018A0127C0603882
:10090000710564F5FB01E158FF4FD801C7018F77EE
:100910009070A070B07080349105A105B10539F4D4
:10092000E7FE0DC080E490E0A0E0B0E004C08FE3FB
:1009300090E0A0E0B0E0E80EF91E0A1F1B1F17FFB1
:1009400005C016950795F794E794319687E01695BC
:100950000795F794E7948A95D1F705C0EE24FF2414
:100960008701EFEFF0E06E2F679566276795902F70
:100970009F77D794DD24D7948E2F8695492F462BC9
:10098000582F5D29B701CA011F910F91FF90EF9079
:10099000DF900895FC01DB01408151812281622FAB
:1009A0006F7770E0221F2227221F9381892F880FE3
:1009B000822B282F30E0991F9927991F11969C931D
:1009C000119721153105A9F54115510561057105ED
:1009D00011F482E037C082E89FEF13969C938E93C8
:1009E00012979A01AB0167E0220F331F441F551F76
:1009F0006A95D1F783E08C930DC0220F331F441FFB
:100A0000551F12968D919C911397019713969C9365
:100A10008E931297203080E0380780E0480780E40A
:100A2000580758F314962D933D934D935C93179765
:100A300008952F3F310579F4411551056105710580
:100A400019F484E08C93089564FF03C081E08C93D3
:100A500012C01C9210C02F57304013963C932E9317
:100A6000129783E08C9387E0440F551F661F771F12
:100A70008A95D1F7706414964D935D936D937C9332
:100A8000179708951F93DC01FB019C91923008F4A5
:100A900047C08081823008F443C0943051F41196ED
:100AA0001C91843099F58181682F70E0611B710978
:100AB0003FC0843021F0923031F48230B9F181812D
:100AC000882389F12DC011961C9111978230F1F085
:100AD00081811817D9F412962D913C911397828138
:100AE00093818217930794F028173907BCF0149666
:100AF0008D919D910D90BC91A02D248135814681D1
:100B00005781281739074A075B0718F4112341F06A
:100B10000AC082179307A407B50740F4112319F000
:100B200061E070E005C06FEF7FEF02C060E070E051
:100B3000CB011F910895DF93CF93CDB7DEB76097B8
:100B40000FB6F894DEBF0FBECDBF888B1F8682E044
:100B500060E040E00E94D00C8F8782E061E040E0DE
:100B60000E94D00C8F8783E068890E94FA098F87E2
:100B700082E062E041E00E94D00C8F8780E090E04C
:100B8000A0E0B0E48B879C87AD87BE876B857C85B2
:100B90008D859E8520E030E04AEF54E40E941702E4
:100BA000DC01CB018F839887A987BA876F8178850D
:100BB00089859A8520E030E040E85FE30E94710378
:100BC00088232CF481E090E09E838D833FC06F8169
:100BD000788589859A8520E03FEF4FE757E40E94AA
:100BE000110318164CF56B857C858D859E8520E05C
:100BF00030E040E251E40E941702DC01CB01BC016D
:100C0000CD010E944100DC01CB019E838D830FC08A
:100C100088EC90E09C838B838B819C810197F1F71A
:100C20009C838B838D819E8101979E838D838D8193
:100C30009E81009769F714C06F81788589859A85B0
:100C40000E944100DC01CB019E838D838D819E81BA
:100C50009A83898389819A810197F1F79A8389839D
:100C600082E062E040E00E94D00C8F878F85609622
:100C70000FB6F894DEBF0FBECDBFCF91DF910895C0
:100C8000DF93CF93CDB7DEB760970FB6F894DEBF92
:100C90000FBECDBF888B1F8682E060E041E00E94DE
:100CA000D00C8F8782E061E040E00E94D00C8F87FB
:100CB00083E068890E94FA098F8782E062E041E060
:100CC0000E94D00C8F8780E090E0A0E0B0E48B879A
:100CD0009C87AD87BE876B857C858D859E8520E052
:100CE00030E04AEF54E40E941702DC01CB018F830D
:100CF0009887A987BA876F81788589859A8520E04A
:100D000030E040E85FE30E94710388232CF481E027
:100D100090E09E838D833FC06F81788589859A8519
:100D200020E03FEF4FE757E40E94110318164CF5FF
:100D30006B857C858D859E8520E030E040E251E426
:100D40000E941702DC01CB01BC01CD010E944100D1
:100D5000DC01CB019E838D830FC088EC90E09C83E7
:100D60008B838B819C810197F1F79C838B838D8191
:100D70009E8101979E838D838D819E81009769F767
:100D800014C06F81788589859A850E944100DC01B5
:100D9000CB019E838D838D819E819A8389838981F6
:100DA0009A810197F1F79A83898382E062E040E0BB
:100DB0000E94D00C8F878F8560960FB6F894DEBFA7
:100DC0000FBECDBFCF91DF910895DF93CF93CDB705
:100DD000DEB72E970FB6F894DEBF0FBECDBF82E010
:100DE00060E041E00E94D90B82E061E041E00E94B6
:100DF000D90B82E062E041E00E94D90B83E06FEF03
:100E00000E94AC0980E090E0A0E2B2E48B879C876E
:100E1000AD87BE876B857C858D859E8520E030E023
:100E20004AEF54E40E941702DC01CB018F839887BC
:100E3000A987BA876F81788589859A8520E030E017
:100E400040E85FE30E94710388232CF481E090E086
:100E50009E838D833FC06F81788589859A8520E048
:100E60003FEF4FE757E40E94110318164CF56B85CE
:100E70007C858D859E8520E030E040E251E40E9433
:100E80001702DC01CB01BC01CD010E944100DC0155
:100E9000CB019E838D830FC088EC90E09C838B8375
:100EA0008B819C810197F1F79C838B838D819E813F
:100EB00001979E838D838D819E81009769F714C071
:100EC0006F81788589859A850E944100DC01CB017C
:100ED0009E838D838D819E819A83898389819A8166
:100EE0000197F1F79A83898388E30E949B058CE040
:100EF0000E949B050E9485072E960FB6F894DEBFD0
:100F00000FBECDBFCF91DF910895DF93CF93CDB7C3
:100F1000DEB781E00E949B05CF91DF910895DF93BA
:100F2000CF93CDB7DEB7A0970FB6F894DEBF0FBE54
:100F3000CDBF98A38F8F1E8E1D8E8F8D98A1009789
:100F400009F41EC18E8D882F90E001972FE030E0CC
:100F5000B9010E94FC0E009709F0F8C08E8D813017
:100F600009F4F4C08D8D882309F079C080E090E009
:100F7000AAE7B4E4898F9A8FAB8FBC8F698D7A8D85
:100F80008B8D9C8D20E030E04AEF54E40E941702E4
:100F9000DC01CB018D8B9E8BAF8BB88F6D897E89E9
:100FA0008F89988D20E030E040E85FE30E94710374
:100FB00088232CF481E090E09C8B8B8B3FC06D8963
:100FC0007E898F89988D20E03FEF4FE757E40E949C
:100FD000110318164CF5698D7A8D8B8D9C8D20E050
:100FE00030E040E251E40E941702DC01CB01BC0179
:100FF000CD010E944100DC01CB019C8B8B8B0FC08B
:1010000088EC90E09A8B898B89899A890197F1F70E
:101010009A8B898B8B899C8901979C8B8B8B8B8975
:101020009C89009769F714C06D897E898F89988D96
:101030000E944100DC01CB019C8B8B8B8B899C89AE
:10104000988B8F878F8598890197F1F7988B8F8779
:1010500081E060E00E94C90881E08D8F77C080E068
:1010600090E0AAE7B4E48B879C87AD87BE876B8549
:101070007C858D859E8520E030E04AEF54E40E9417
:101080001702DC01CB018F839887A987BA876F810C
:10109000788589859A8520E030E040E85FE30E940A
:1010A000710388232CF481E090E09E838D833FC000
:1010B0006F81788589859A8520E03FEF4FE757E477
:1010C0000E94110318164CF56B857C858D859E85D5
:1010D00020E030E040E251E40E941702DC01CB0145
:1010E000BC01CD010E944100DC01CB019E838D83B8
:1010F0000FC088EC90E09C838B838B819C8101974F
:10110000F1F79C838B838D819E8101979E838D83D4
:101110008D819E81009769F714C06F8178858985DC
:101120009A850E944100DC01CB019E838D838D81D5
:101130009E819A83898389819A810197F1F79A83A5
:10114000898380E060E00E94C9081D8E8E8D282F63
:1011500030E08F8D98A1FC01E20FF31F80810E9487
:1011600040068E8D8F5F8E8F8E8D282F30E08F8D75
:1011700098A1FC01E20FF31F8081882309F0E2CEE1
:10118000A0960FB6F894DEBF0FBECDBFCF91DF9112
:101190000895DF93CF9300D00F92CDB7DEB78A8347
:1011A0006B838A81882319F48B81898306C08A81A5
:1011B000813019F48B81805C89838981806889837F
:1011C00089810E949B050F900F900F90CF91DF9126
:1011D0000895DF93CF93CDB7DEB727970FB6F89476
:1011E000DEBF0FBECDBF9C838B836D834E832F8369
:1011F0001A8219828D81882F90E0880F991F880F9D
:10120000991F880F991F8A838A81805C0E949B05A1
:1012100019820EC08981282F30E08B819C81FC01CE
:10122000E20FF31F80810E94400689818F5F8983CE
:101230008981883078F38E816F810E94C9088D8101
:101240000E94400627960FB6F894DEBF0FBECDBFB2
:10125000CF91DF910895DF93CF93CDB7DEB788E1CB
:101260000E949B05CF91DF9108950F931F93DF9309
:10127000CF93CDB7DEB72F970FB6F894DEBF0FBE72
:10128000CDBF6C877D878E879F8719828C859D85D2
:10129000AE85BF850097A105B10599F580E30E9451
:1012A00040064FC08981082F112707FD10958C85B6
:1012B0009D85AE85BF852AE030E040E050E0BC016E
:1012C000CD010E940F0FDC01CB01282FCE01029629
:1012D000FC01E00FF11F20838C859D85AE85BF85C5
:1012E0002AE030E040E050E0BC01CD010E940F0F49
:1012F000DA01C9018C879D87AE87BF8789818F5F9F
:1013000089838C859D85AE85BF850097A105B10534
:1013100049F689818150898311C08981282F33271B
:1013200027FD3095CE010296FC01E20FF31F80816C
:10133000805D0E944006898181508983898188234C
:1013400064F72F960FB6F894DEBF0FBECDBFCF91D6
:10135000DF911F910F910895DF93CF9300D000D0BC
:101360000F92CDB7DEB78A836B8319828A8184306E
:10137000B0F58A81282F30E03D832C838C819D81BC
:1013800081309105D1F02C813D81223031052CF442
:101390008C819D81009761F01FC02C813D8122309E
:1013A000310581F08C819D818330910581F014C0DD
:1013B000EAE3F0E08B81808314C0E7E3F0E08B8107
:1013C00080830FC0E4E3F0E08B8180830AC0E1E317
:1013D000F0E08B81808305C081E0898302C081E0D9
:1013E000898389810F900F900F900F900F90CF916C
:1013F000DF910895DF93CF9300D000D00F92CDB747
:10140000DEB78A836B8319828A81843098F58A815A
:10141000282F30E03D832C838C819D818130910584
:10142000D1F02C813D81223031052CF48C819D81BD
:10143000009761F021C02C813D812230310581F07F
:101440008C819D818330910581F016C0EBE3F0E043
:101450008B81808311C0E8E3F0E08B8180830CC036
:10146000E5E3F0E08B81808307C0E2E3F0E08B816D
:10147000808302C081E0898389810F900F900F9053
:101480000F900F90CF91DF910895DF93CF9300D00D
:1014900000D000D0CDB7DEB78A837C836B831982FE
:1014A0008A818430D8F58A81282F30E03E832D83CD
:1014B0008D819E8181309105E1F02D813E81223028
:1014C00031052CF48D819E81009761F029C02D811A
:1014D0003E8122303105A1F08D819E8183309105BE
:1014E000B1F01EC0E9E3F0E08081EB81FC818083F4
:1014F00017C0E6E3F0E08081EB81FC81808310C0BF
:10150000E3E3F0E08081EB81FC81808309C0E0E3CC
:10151000F0E08081EB81FC81808302C081E08983DF
:10152000898126960FB6F894DEBF0FBECDBFCF914E
:10153000DF910895DF93CF9300D000D0CDB7DEB711
:101540008A8319828A81843008F029C18A81282FF0
:1015500030E03C832B838B819C818130910509F4A1
:1015600058C02B813C81223031052CF48B819C8129
:10157000009771F011C12B813C812230310509F4B3
:1015800089C08B819C818330910509F4C4C004C15A
:10159000ABE3B0E0EBE3F0E0908181E089278C934E
:1015A000ABE3B0E0EBE3F0E0908182E089278C933D
:1015B000ABE3B0E0EBE3F0E0908184E089278C932B
:1015C000ABE3B0E0EBE3F0E0908188E089278C9317
:1015D000ABE3B0E0EBE3F0E0908180E189278C930E
:1015E000ABE3B0E0EBE3F0E0908180E289278C93FD
:1015F000ABE3B0E0EBE3F0E0908180E489278C93EB
:10160000ABE3B0E0EBE3F0E0908180E889278C93D6
:10161000C8C0A8E3B0E0E8E3F0E0908181E089276A
:101620008C93A8E3B0E0E8E3F0E0908182E08927C2
:101630008C93A8E3B0E0E8E3F0E0908184E08927B0
:101640008C93A8E3B0E0E8E3F0E0908188E089279C
:101650008C93A8E3B0E0E8E3F0E0908180E1892793
:101660008C93A8E3B0E0E8E3F0E0908180E2892782
:101670008C93A8E3B0E0E8E3F0E0908180E4892770
:101680008C93A8E3B0E0E8E3F0E0908180E889275C
:101690008C9387C0A5E3B0E0E5E3F0E0908181E0C2
:1016A00089278C93A5E3B0E0E5E3F0E0908182E048
:1016B00089278C93A5E3B0E0E5E3F0E0908184E036
:1016C00089278C93A5E3B0E0E5E3F0E0908188E022
:1016D00089278C93A5E3B0E0E5E3F0E0908180E119
:1016E00089278C93A5E3B0E0E5E3F0E0908180E208
:1016F00089278C93A5E3B0E0E5E3F0E0908180E4F6
:1017000089278C93A5E3B0E0E5E3F0E0908180E8E1
:1017100089278C9346C0A2E3B0E0E2E3F0E0908139
:1017200081E089278C93A2E3B0E0E2E3F0E09081CE
:1017300082E089278C93A2E3B0E0E2E3F0E09081BD
:1017400084E089278C93A2E3B0E0E2E3F0E09081AB
:1017500088E089278C93A2E3B0E0E2E3F0E0908197
:1017600080E189278C93A2E3B0E0E2E3F0E090818E
:1017700080E289278C93A2E3B0E0E2E3F0E090817D
:1017800080E489278C93A2E3B0E0E2E3F0E090816B
:1017900080E889278C9305C081E0898302C081E0BD
:1017A000898389810F900F900F900F90CF91DF91D7
:1017B0000895DF93CF9300D000D000D0CDB7DEB72F
:1017C0008A836B834C8319828B81883008F0DCC05C
:1017D0008C81882321F08C81813009F0D5C08A81E9
:1017E000282F30E03E832D838D819E8181309105AD
:1017F00009F443C02D813E81223031052CF48D81C6
:101800009E81009771F0BDC02D813E81223031054F
:1018100009F45FC08D819E818330910509F485C0F4
:10182000B0C08C818130A1F4AAE3B0E0EAE3F0E03B
:101830008081482F8B81282F30E081E090E0022EBC
:1018400002C0880F991F0A94E2F7842B8C939EC0E4
:10185000AAE3B0E0EAE3F0E08081482F8B81282FF3
:1018600030E081E090E0022E02C0880F991F0A94B8
:10187000E2F7809584238C9389C08C818130A1F418
:10188000A7E3B0E0E7E3F0E08081482F8B81282FC9
:1018900030E081E090E0022E02C0880F991F0A9488
:1018A000E2F7842B8C9372C0A7E3B0E0E7E3F0E0AB
:1018B0008081482F8B81282F30E081E090E0022E3C
:1018C00002C0880F991F0A94E2F7809584238C93B5
:1018D0005DC08C818130A1F4A4E3B0E0E4E3F0E0EA
:1018E0008081482F8B81282F30E081E090E0022E0C
:1018F00002C0880F991F0A94E2F7842B8C9346C08C
:10190000A4E3B0E0E4E3F0E08081482F8B81282F4E
:1019100030E081E090E0022E02C0880F991F0A9407
:10192000E2F7809584238C9331C08C818130A1F4BF
:10193000A1E3B0E0E1E3F0E08081482F8B81282F24
:1019400030E081E090E0022E02C0880F991F0A94D7
:10195000E2F7842B8C931AC0A1E3B0E0E1E3F0E05E
:101960008081482F8B81282F30E081E090E0022E8B
:1019700002C0880F991F0A94E2F7809584238C9304
:1019800005C081E0898302C081E089838981269630
:101990000FB6F894DEBF0FBECDBFCF91DF91089593
:1019A000DF93CF9300D000D000D0CDB7DEB78A83CD
:1019B0006B834C8319828B81883008F0E8C08C815E
:1019C000882339F08C81813021F08C81813009F0BD
:1019D000DEC08A81282F30E03E832D838D819E8159
:1019E0008130910509F446C02D813E8122303105B8
:1019F0002CF48D819E81009771F0CBC02D813E81AA
:101A00002230310509F465C08D819E8183309105B6
:101A100009F48EC0BEC08C81813019F08C81813078
:101A2000A1F4ABE3B0E0EBE3F0E08081482F8B81E1
:101A3000282F30E081E090E0022E02C0880F991F2D
:101A40000A94E2F7842B8C93A4C0ABE3B0E0EBE301
:101A5000F0E08081482F8B81282F30E081E090E0FA
:101A6000022E02C0880F991F0A94E2F78095842302
:101A70008C938FC08C81813019F08C818130A1F4DE
:101A8000A8E3B0E0E8E3F0E08081482F8B81282FC5
:101A900030E081E090E0022E02C0880F991F0A9486
:101AA000E2F7842B8C9375C0A8E3B0E0E8E3F0E0A4
:101AB0008081482F8B81282F30E081E090E0022E3A
:101AC00002C0880F991F0A94E2F7809584238C93B3
:101AD00060C08C81813019F08C818130A1F4A5E344
:101AE000B0E0E5E3F0E08081482F8B81282F30E0E3
:101AF00081E090E0022E02C0880F991F0A94E2F75D
:101B0000842B8C9346C0A5E3B0E0E5E3F0E0808150
:101B1000482F8B81282F30E081E090E0022E02C018
:101B2000880F991F0A94E2F7809584238C9331C023
:101B30008C81813019F08C818130A1F4A2E3B0E076
:101B4000E2E3F0E08081482F8B81282F30E081E0B4
:101B500090E0022E02C0880F991F0A94E2F7842BAE
:101B60008C9317C0A2E3B0E0E2E3F0E08081482F5D
:101B70008B81282F30E081E090E0022E02C0880F98
:101B8000991F0A94E2F7809584238C9302C081E028
:101B90008983898126960FB6F894DEBF0FBECDBF2C
:101BA000CF91DF910895DF93CF93CDB7DEB727971D
:101BB0000FB6F894DEBF0FBECDBF8A836B835D8303
:101BC0004C8319828B81883008F074C08A81282F59
:101BD00030E03F832E834E815F814130510559F1C2
:101BE0008E819F818230910534F42E813F812115B1
:101BF000310569F05CC04E815F814230510579F159
:101C00008E819F818330910509F43DC050C0E9E386
:101C1000F0E08081282F30E08B81882F90E0A901AF
:101C200002C0559547958A95E2F7CA018170EC810B
:101C3000FD81808341C0E6E3F0E08081282F30E021
:101C40008B81882F90E0A90102C0559547958A9510
:101C5000E2F7CA018170EC81FD8180832DC0E3E34E
:101C6000F0E08081282F30E08B81882F90E0A9015F
:101C700002C0559547958A95E2F7CA018170EC81BB
:101C8000FD81808319C0E0E3F0E08081282F30E0FF
:101C90008B81882F90E0A90102C0559547958A95C0
:101CA000E2F7CA018170EC81FD81808305C081E08B
:101CB000898302C081E08983898127960FB6F894D1
:101CC000DEBF0FBECDBFCF91DF910895DF93CF93DD
:101CD00000D000D00F92CDB7DEB78A836B83198214
:101CE0008B81883008F072C08A81282F30E03D83D4
:101CF0002C838C819D818130910549F12C813D811E
:101D0000223031052CF48C819D81009761F05BC0FD
:101D10002C813D812230310571F18C819D81833090
:101D20009105E9F150C0ABE3B0E0EBE3F0E0808176
:101D3000482F8B81282F30E081E090E0022E02C0F6
:101D4000880F991F0A94E2F784278C9341C0A8E377
:101D5000B0E0E8E3F0E08081482F8B81282F30E06D
:101D600081E090E0022E02C0880F991F0A94E2F7EA
:101D700084278C932DC0A5E3B0E0E5E3F0E08081FB
:101D8000482F8B81282F30E081E090E0022E02C0A6
:101D9000880F991F0A94E2F784278C9319C0A2E355
:101DA000B0E0E2E3F0E08081482F8B81282F30E023
:101DB00081E090E0022E02C0880F991F0A94E2F79A
:101DC00084278C9305C081E0898302C081E08983E8
:101DD00089810F900F900F900F900F90CF91DF910E
:101DE0000895DF93CF93CDB7DEB70E94E50680E676
:101DF00090E00E948F07FFCF97FB092E07260AD09D
:101E000077FD04D02ED006D000201AF4709561958D
:101E10007F4F0895F6F7909581959F4F0895A1E221
:101E20001A2EAA1BBB1BFD010DC0AA1FBB1FEE1F54
:101E3000FF1FA217B307E407F50720F0A21BB30B9F
:101E4000E40BF50B661F771F881F991F1A9469F71B
:101E500060957095809590959B01AC01BD01CF0177
:101E60000895AA1BBB1B51E107C0AA1FBB1FA617E1
:101E7000B70710F0A61BB70B881F991F5A95A9F733
:101E800080959095BC01CD0108952F923F924F927D
:101E90005F926F927F928F929F92AF92BF92CF92FA
:101EA000DF92EF92FF920F931F93CF93DF93CDB703
:101EB000DEB7CA1BDB0B0FB6F894DEBF0FBECDBF7B
:101EC00009942A88398848885F846E847D848C844C
:101ED0009B84AA84B984C884DF80EE80FD800C8155
:101EE0001B81AA81B981CE0FD11D0FB6F894DEBF38
:0C1EF0000FBECDBFED010895F894FFCFA8
:101EFC00456C616D69722047616C616C2049206191
:101F0C006D203234207965617273206F6C642049C6
:101F1C0020616D20616E20656E67696E656572006B
:101F2C000000000000000000040404040404040485
:101F3C000001110905031F1F00001E11110E0000E6
:101F4C000004041F00180000000001010204081026
:00000001FF
